:1008970054484953204953204F55522047524F55EA
:0A08A700502050524F4A45435400C0
:100800007F0A7E001208771208297BFF7A08799701
:1008100012084E7F647E001208777F0A1208B11218
:0908200008737F0A1208CA80FE69
:100829007F647E001208777F0E1208FC7F38120859
:10083900FC7F011208FC7F0C1208FC7F831208FC64
:050849007F060208FC1F
:1008FC008FA0C290C291D2927F017E00120877C263
:02090C00922235
:10084E008B088A09890AAB08AA09A90A1208E3606B
:10085E0013050AE50A7002050914F91208E3FF12DE
:05086E00090E80E222EA
:0208B1008F08AE
:1008B300E4F509E509C39508500C7F181208FC12EA
:0608C3000873050980ED39
:0108C900220C
:0208CA008F0895
:1008CC00E4F509E509C39508500C7F1C1208CA12FF
:0608DC000873050980ED20
:0108E20022F3
:10090E008FA0D290C291D2927F017E00120877C240
:02091E00922223
:040873007F2C7E0157
:10087700E4FDFCC3ED9FEC9E5015E4FBFA0BBB00B7
:0F088700010ABA01F8BBF4F50DBD00010C80E4C5
:01089600223F
:03000000020920D2
:0C092000787FE4F6D8FD75810A0208001B
:1008E300BB010689828A83E0225002E722BBFE0213
:0908F300E32289828A83E4932246
:00000001FF
